{
  "contractName": "MoreTokenSale",
  "abi": [
    {
      "constant": true,
      "inputs": [],
      "name": "tokenContract",
      "outputs": [
        {
          "name": "",
          "type": "address"
        }
      ],
      "payable": false,
      "stateMutability": "view",
      "type": "function",
      "signature": "0x55a373d6"
    },
    {
      "constant": true,
      "inputs": [],
      "name": "tokenPrice",
      "outputs": [
        {
          "name": "",
          "type": "uint256"
        }
      ],
      "payable": false,
      "stateMutability": "view",
      "type": "function",
      "signature": "0x7ff9b596"
    },
    {
      "inputs": [
        {
          "name": "_tokenContract",
          "type": "address"
        },
        {
          "name": "_tokenPrice",
          "type": "uint256"
        }
      ],
      "payable": false,
      "stateMutability": "nonpayable",
      "type": "constructor",
      "signature": "constructor"
    }
  ],
  "bytecode": "0x608060405234801561001057600080fd5b506040516040806102068339810180604052604081101561003057600080fd5b810190808051906020019092919080519060200190929190505050336000806101000a81548173ffffffffffffffffffffffffffffffffffffffff021916908373ffffffffffffffffffffffffffffffffffffffff16021790555081600160006101000a81548173ffffffffffffffffffffffffffffffffffffffff021916908373ffffffffffffffffffffffffffffffffffffffff160217905550806002819055505050610122806100e46000396000f3fe6080604052600436106049576000357c0100000000000000000000000000000000000000000000000000000000900463ffffffff16806355a373d614604e5780637ff9b5961460a2575b600080fd5b348015605957600080fd5b50606060ca565b604051808273ffffffffffffffffffffffffffffffffffffffff1673ffffffffffffffffffffffffffffffffffffffff16815260200191505060405180910390f35b34801560ad57600080fd5b5060b460f0565b6040518082815260200191505060405180910390f35b600160009054906101000a900473ffffffffffffffffffffffffffffffffffffffff1681565b6002548156fea165627a7a72305820931059cf30c87f21ddca165242d93a069f8ad223b572932d69655d153eef98260029",
  "source": "pragma solidity ^0.5.0;\r\n\r\nimport \"./MoreToken.sol\";\r\n\r\ncontract MoreTokenSale {\r\n\r\n\taddress admin;\r\n\tMoreToken public tokenContract;\r\n\tuint256 public tokenPrice;\r\n\r\n\tconstructor (MoreToken _tokenContract, uint256 _tokenPrice) public {\r\n\r\n\t\t// assign an admin\r\n\t\tadmin = msg.sender;\r\n\r\n\t\t// assign a token contract\r\n\t\ttokenContract = _tokenContract;\r\n\r\n\t\t// assign token price\r\n\t\ttokenPrice = _tokenPrice;\r\n\t}\r\n} ",
  "sourcePath": "G:/projects/blockchain/token_sale/contracts/MoreTokenSale.sol",
  "compiler": {
    "name": "solc",
    "version": "0.5.0+commit.1d4f565a.Emscripten.clang"
  },
  "schemaVersion": "3.0.5",
  "updatedAt": "2019-04-05T20:14:43.300Z",
  "devdoc": {
    "methods": {}
  },
  "userdoc": {
    "methods": {}
  }
}